:100000000C9456000C946B000C946B000C946B00D9
:100010000C946B000C946B000C946B000C946B00B4
:100020000C946B000C946B000C946B000C946B00A4
:100030000C946B000C946B000C946B000C946B0094
:100040000C946B000C946B000C946B000C946B0084
:100050000C946B000C946B000C946B000C946B0074
:100060000C946B000C946B000C946B000C946B0064
:100070000C946B000C946B000C946B000C946B0054
:100080000C946B000C946B000C946B000C946B0044
:100090000C946B000C946B000C946B000C946B0034
:1000A0000C946B000C946B000C946B0011241FBE1D
:1000B000CFEFDAE0DEBFCDBF11E0A0E0B1E0EEE8C7
:1000C000F9E102C005900D92A830B107D9F70E945E
:1000D0006D000C94C50C0C940000CF92DF92EF924F
:1000E000FF920F931F93DF93CF93CDB7DEB7669741
:1000F0000FB6F894DEBF0FBECDBF80E090E060E0A9
:1001000070E043E050E020E030E000E010E0EE245A
:10011000FF24CC24DD240E94830381E090E067E08B
:1001200070E041E050E00E94D20181E090E066E0A2
:1001300070E041E050E00E94D20183E090E060E096
:1001400070E041E050E00E94D20183E090E061E085
:1001500070E041E050E00E94D20183E090E061E075
:1001600070E00E941E0281E090E066E070E00E9474
:100170001E020E943D0480E090E063E00E94F604CD
:1001800080E090E060E070E042E050E00E94ED0529
:1001900080E090E061E070E042E050E00E94ED0518
:1001A00080E090E060E070E04FE750E00E9453068E
:1001B00080E090E061E070E04FE750E00E9453067D
:1001C00080E090E065E070E00E94590588E0FE0163
:1001D0003F96DF01982F1D929A95E9F78AEA8F875B
:1001E000E4E4F0E08081888BE5E4F0E08081898BB5
:1001F000E7E4F0E080818A8BE8E4F0E080818B8B9B
:1002000083E18C8B80E18D8B1E8ACE010F9661E09D
:100210000E94540480E090E0AAE7B4E48B879C87B6
:10022000AD87BE876B857C858D859E8520E030E01F
:100230004AE755E40E94E808DC01CB018F839887E8
:10024000A987BA876F81788589859A8520E030E013
:1002500040E85FE30E94420A88232CF481E090E0AA
:100260009E838D833FC06F81788589859A8520E044
:100270003FEF4FE757E40E94E20918164CF56B85F3
:100280007C858D859E8520E030E040E251E40E942F
:10029000E808DC01CB01BC01CD010E941207DC01A2
:1002A000CB019E838D830FC080E991E09C838B837B
:1002B0008B819C810197F1F79C838B838D819E813B
:1002C00001979E838D838D819E81009769F79DCFD5
:1002D0006F81788589859A850E941207DC01CB01A0
:1002E0009E838D838D819E819A83898389819A8162
:1002F0000197F1F79A83898388CFDF93CF9300D05A
:1003000000D00F92CDB7DEB78B831A8219828B8112
:10031000282F30E03D832C838C819D818230910594
:1003200021F12C813D812330310554F48C819D8154
:10033000009771F12C813D812130310589F028C071
:100340008C819D8184309105D1F02C813D812430B8
:10035000310584F08C819D8185309105A9F018C00C
:1003600083E290E09A83898313C086E290E09A83C7
:1003700089830EC089E290E09A83898309C08CE268
:1003800090E09A83898304C08FE290E09A83898306
:1003900089819A810F900F900F900F900F90CF91BD
:1003A000DF910895DF93CF93CDB7DEB728970FB6CF
:1003B000F894DEBF0FBECDBF9C838B837E836D839D
:1003C00058874F838B810E947D019A83898389811D
:1003D0009A81009751F18F819885009799F0E98172
:1003E000FA818181482F2D813E8181E090E0022EAB
:1003F00002C0880F991F0A94E2F7842BE981FA81E1
:10040000818313C0E981FA818181482F2D813E814A
:1004100081E090E0022E02C0880F991F0A94E2F753
:1004200080958423E981FA81818328960FB6F89418
:10043000DEBF0FBECDBFCF91DF910895DF93CF9385
:1004400000D000D000D0CDB7DEB79C838B837E83F5
:100450006D838B810E947D019A83898389819A8132
:10046000009791F0E981FA818281482F2D813E81A8
:1004700081E090E0022E02C0880F991F0A94E2F7F3
:10048000842BE981FA81828326960FB6F894DEBF29
:100490000FBECDBFCF91DF910895DF93CF9300D0F2
:1004A00000D000D0CDB7DEB79C838B837E836D8375
:1004B0008B810E947D019A83898389819A8100972B
:1004C00099F0E981FA818281482F2D813E8181E076
:1004D00090E0022E02C0880F991F0A94E2F78095DF
:1004E0008423E981FA81828326960FB6F894DEBFD1
:1004F0000FBECDBFCF91DF910895DF93CF93CDB7DE
:10050000DEB727970FB6F894DEBF0FBECDBF9D8331
:100510008C837F836E838C810E947D019B838A8381
:100520008A819B810097D9F0EA81FB818281482FE3
:1005300050E02E813F8181E090E002C0880F991F3A
:100540002A95E2F79A01282339238E819F81A901F8
:1005500002C0559547958A95E2F7CA01898389813A
:1005600027960FB6F894DEBF0FBECDBFCF91DF91B7
:100570000895DF93CF93CDB7DEB72F970FB6F894DA
:10058000DEBF0FBECDBF9C878B876D871A8619860D
:1005900080E895E2A0E0B0E08D839E83AF83B887CA
:1005A00019821A821B821C8288EC90E09A878987C4
:1005B0008B859C859F878E878E859F858130910551
:1005C000C9F08E859F858130910558F08E859F8575
:1005D00082309105C1F08E859F8583309105E1F0D1
:1005E00024C080E895E2A0E0B0E08D839E83AF83D5
:1005F000B88723C080E09BE4A0E0B0E08D839E83B9
:10060000AF83B8871AC080E096E9A0E0B0E08D83A0
:100610009E83AF83B88711C080E092ECA1E0B0E088
:100620008D839E83AF83B88708C080E895E2A0E001
:10063000B0E08D839E83AF83B8878D85882341F595
:100640008D819E81AF81B885880F991FAA1FBB1F1E
:10065000880F991FAA1FBB1F880F991FAA1FBB1FB6
:10066000880F991FAA1FBB1F9C01AD0180E094E277
:10067000A4EFB0E0BC01CD010E946C0CDA01C9010D
:100680000197A109B10989839A83AB83BC8323C0F5
:100690008D819E81AF81B885880F991FAA1FBB1FCE
:1006A000880F991FAA1FBB1F880F991FAA1FBB1F66
:1006B0009C01AD0180E094E2A4EFB0E0BC01CD016B
:1006C0000E946C0CDA01C9010197A109B109898363
:1006D0009A83AB83BC838981E985FA858483898188
:1006E0009A81AB81BC81892F9A2FAB2FBB27E985DB
:1006F000FA8585832F960FB6F894DEBF0FBECDBF67
:10070000CF91DF910895CF92DF92EF92FF920F93F6
:100710001F93DF93CF93CDB7DEB765970FB6F894ED
:10072000DEBF0FBECDBF9F838E83798768875B87CF
:100730004A873D872C871F870E87F98AE88ADB8ADC
:10074000CA8A1D821C821B821A82198288EC90E060
:100750009D838C838E819F819D8B8C8B8C899D89C1
:10076000009731F08C899D8981309105E9F16AC04B
:100770008E81982F9295990F990F907C8B81892B60
:100780008B838C85982F9295907F8B81892B8B837F
:100790008E85982F990F990F990F8B81892B8B83B9
:1007A0008A858770982F990F8B81892B8B838A85F7
:1007B000982F94708A81892B8A838A89982F990F20
:1007C0008981892B89838A899B898130910531F4BC
:1007D0008885998561E00E94B90234C08885998531
:1007E00060E00E94B9022EC08E81982F9295990FD9
:1007F000990F907C8B81892B8B838C85982F929578
:10080000907F8B81892B8B838E85982F990F990FE1
:10081000990F8B81892B8B838A858270982F990FF2
:100820008B81892B8B838A85982F94708A81892B61
:100830008A8398898B81892B8B838885998560E051
:100840000E94B902EC81FD8189818083EC81FD8168
:100850008A818183EC81FD818B81828365960FB6CD
:10086000F894DEBF0FBECDBFCF91DF911F910F91E6
:10087000FF90EF90DF90CF900895DF93CF9300D05B
:10088000CDB7DEB71A82198288EC90E09A8389830B
:10089000E981FA8181818861E981FA8181830F9000
:1008A0000F90CF91DF910895DF93CF9300D000D0C8
:1008B0000F92CDB7DEB79C838B836D831A8219822A
:1008C00088EC90E09A8389838D818823C1F5E98142
:1008D000FA818081882F90E080729070959587953D
:1008E00095958795959587959595879595958795F0
:1008F000009751F1EB81FC818081E981FA81868347
:1009000023C0E981FA818081882F90E08072907005
:1009100095958795959587959595879595958795BF
:1009200095958795009759F0EB81FC818081E9814D
:10093000FA8186838B819C8101969C838B83EB81DA
:10094000FC8180818823E9F60F900F900F900F9023
:100950000F90CF91DF910895DF93CF9300D000D017
:1009600000D0CDB7DEB79C838B837E836D831A82E4
:10097000198288EC90E09A838983E981FA818081E9
:1009800088235CF4E981FA818681EB81FC81808394
:10099000ED81FE8181E0808303C0ED81FE811082C4
:1009A00026960FB6F894DEBF0FBECDBFCF91DF9174
:1009B0000895DF93CF9300D0CDB7DEB71A821982A6
:1009C00088EC90E09A838983E981FA818181E981C9
:1009D000FA8181830F900F90CF91DF910895DF937B
:1009E000CF93CDB7DEB7CF91DF910895DF93CF934B
:1009F000CDB7DEB72D970FB6F894DEBF0FBECDBFD3
:100A00009A8789876B8789859A859D878C878C854E
:100A10009D8581309105B1F18C859D858130910551
:100A200058F08C859D858230910589F18C859D8556
:100A30008330910589F134C084E490E098878F83F6
:100A4000EF81F8858081982F8B858370892BEF81CA
:100A5000F8858083EF81F8858181282F8B85882F09
:100A600090E0847090709595879595958795880FFF
:100A7000991F880F991F880F991F822BEF81F88586
:100A800081830EC080E890E09E838D8309C080E959
:100A900090E09C838B8304C08EEB90E09A838983E3
:100AA0002D960FB6F894DEBF0FBECDBFCF91DF916C
:100AB0000895DF93CF93CDB7DEB72E970FB6F89496
:100AC000DEBF0FBECDBF9A8789877C876B878985FC
:100AD0009A859E878D878D859E8581309105F1F061
:100AE0008D859E858130910558F08D859E8582305B
:100AF0009105C9F08D859E8583309105C9F01CC094
:100B000084E490E098878F83EF81F88591818B85CD
:100B10008770892BEF81F88581830EC080E890E093
:100B20009E838D8309C080E990E09C838B8304C001
:100B30008EEB90E09A8389832E960FB6F894DEBFF1
:100B40000FBECDBFCF91DF910895DF93CF93CDB787
:100B5000DEB72C970FB6F894DEBF0FBECDBF9A87D5
:100B6000898789859A859C878B878B859C85813031
:100B70009105E1F08B859C858130910558F08B853E
:100B80009C8582309105B9F08B859C8583309105D9
:100B9000B9F01AC084E490E098878F83EF81F885DC
:100BA0008181887FEF81F88581830EC080E890E0A5
:100BB0009E838D8309C080E990E09C838B8304C071
:100BC0008EEB90E09A8389832C960FB6F894DEBF63
:100BD0000FBECDBFCF91DF910895DF93CF93CDB7F7
:100BE000DEB760970FB6F894DEBF0FBECDBF9A8711
:100BF00089877C876B875E874D8789859A85988BE7
:100C00008F878F85988981309105B1F18F8598897B
:100C10008130910558F08F8598898230910589F14E
:100C20008F8598898330910589F134C084E490E000
:100C300098878F838B859C85009769F4EF81F88571
:100C400090818D858295880F880F807C892BEF811C
:100C5000F88580831FC08B859C8581309105D1F4F8
:100C6000EF81F88590818D8583708295807F892BB7
:100C7000EF81F88580830EC080E890E09E838D83AD
:100C800009C080E990E09C838B8304C08EEB90E0E8
:100C90009A83898360960FB6F894DEBF0FBECDBFEE
:100CA000CF91DF910895DF93CF93CDB7DEB76097F3
:100CB0000FB6F894DEBF0FBECDBF9A8789877C87B9
:100CC0006B875E874D8789859A85988B8F878F85FF
:100CD00098898130910551F18F85988981309105EE
:100CE00068F08F8598898230910509F457C08F8507
:100CF00098898330910509F488C08BC084E490E022
:100D000098878F838B859C85009729F48D85EF814B
:100D1000F88583837EC08B859C858130910509F0A1
:100D200078C08D85EF81F885848373C080E890E07A
:100D30009E838D838B859C858230910561F48D85A2
:100D4000ED81FE8180878D859E85892F9927ED8194
:100D5000FE8181875EC08B859C858330910561F41F
:100D60008D85ED81FE8182878D859E85892F9927CE
:100D7000ED81FE8183874DC08B859C8584309105F4
:100D800009F047C08D85ED81FE8184878D859E8524
:100D9000892F9927ED81FE8185873BC080E990E00E
:100DA0009C838B838B859C858530910561F48D8533
:100DB000EB81FC8180878D859E85892F9927EB812A
:100DC000FC81818726C08B859C858630910561F4E6
:100DD0008D85EB81FC8182878D859E85892F992762
:100DE000EB81FC81838715C08B859C8587309105BD
:100DF00081F48D85EB81FC8184878D859E85892F8B
:100E00009927EB81FC81858704C08EEB90E09A8363
:100E1000898360960FB6F894DEBF0FBECDBFCF9129
:100E2000DF910895EF92FF920F931F937B018C0146
:100E300020E030E040E05FE40E94120A88238CF05A
:100E4000C801B70120E030E040E05FE40E948A087A
:100E50000E94720A9B01AC01205030404040504833
:100E600006C0C801B7010E94720A9B01AC01B9011A
:100E7000CA011F910F91FF90EF900895A0E0B0E09C
:100E8000E4E4F7E00C948E0CDC012B01FA019C9158
:100E9000923008F439C1EB018881823008F433C103
:100EA000943069F4843009F02FC111969C91119708
:100EB0008981981709F428C1A0E0B1E025C18430E8
:100EC00009F421C18230A9F4923009F01DC19A01C0
:100ED000AD0188E0EA010990AE01E90109929E01A5
:100EE0008150C1F7E201898111969C918923818308
:100EF00008C1923009F407C112962D903C901397C7
:100F0000EB018A819B811496AD90BD90CD90DC90D1
:100F10001797EC80FD800E811F819101281B390BF2
:100F2000B90137FF04C066277727621B730B603255
:100F300071050CF061C0121613066CF537014801FB
:100F4000062E04C096948794779467940A94D2F7F7
:100F500021E030E040E050E004C0220F331F441F86
:100F6000551F6A95D2F721503040404050402E2105
:100F70003F2140235123211531054105510521F021
:100F800021E030E040E050E079018A01E628F728CE
:100F9000082919293CC0232BD1F1260E371E350113
:100FA0004601062E04C096948794779467940A9419
:100FB000D2F721E030E040E050E004C0220F331FC0
:100FC000441F551F6A95D2F7215030404040504091
:100FD0002A213B214C215D21211531054105510577
:100FE00021F021E030E040E050E059016A01A628FC
:100FF000B728C828D9280BC0821593052CF01C01EE
:10100000AA24BB24650103C0EE24FF2487011196A6
:101010009C91D20111968C91981709F445C099239F
:1010200039F0A80197012A193B094C095D0906C04E
:10103000A60195012E193F09400B510B57FD08C021
:1010400011823382228224833583468357831DC0D5
:1010500081E081833382228288279927DC01821BE9
:10106000930BA40BB50B84839583A683B7830DC024
:10107000220F331F441F551F248335834683578314
:101080008281938101979383828324813581468174
:101090005781DA01C9010197A109B1098F5F9F4FFB
:1010A000AF4FBF4328F30BC0918333822282EA0CF7
:1010B000FB1C0C1D1D1DE482F5820683178383E053
:1010C0008083248135814681578157FF1AC0C90129
:1010D000AA2797FDA095BA2F81709070A070B0706C
:1010E0005695479537952795822B932BA42BB52B97
:1010F00084839583A683B7838281938101969383AA
:101100008283DF0101C0D201CD01CDB7DEB7E2E1BC
:101110000C94AA0CA0E2B0E0E0E9F8E00C949A0C80
:1011200069837A838B839C832D833E834F83588787
:10113000E9E0EE2EF12CEC0EFD1ECE010196B7017A
:101140000E949B0B8E010F5E1F4FCE010596B801CA
:101150000E949B0B8A8991E089278A8BC701B8017D
:10116000AE01475E5F4F0E943E070E94C60AA096EE
:10117000E6E00C94B60CA0E2B0E0E1ECF8E00C94F0
:101180009A0C69837A838B839C832D833E834F8360
:101190005887F9E0EF2EF12CEC0EFD1ECE010196E2
:1011A000B7010E949B0B8E010F5E1F4FCE0105966B
:1011B000B8010E949B0BC701B801AE01475E5F4FAB
:1011C0000E943E070E94C60AA096E6E00C94B60C68
:1011D000A0E2B0E0EEEEF8E00C948E0C69837A8326
:1011E0008B839C832D833E834F835887CE0101964A
:1011F000BE01675F7F4F0E949B0BCE010596BE012B
:101200006F5E7F4F0E949B0B9985923088F0898991
:101210008230C8F0943019F4823051F404C0843024
:1012200029F4923081F480E091E0C6C0923049F414
:1012300020E09A858A89981321E02A87CE010996B1
:10124000BBC0823049F420E09A858A89981321E056
:101250002A8BCE014196B0C02D843E844F8458889D
:101260006D887E888F88988CEE24FF248701AA24BD
:10127000BB24650140E050E060E070E0E0E0F0E0B9
:10128000C10181709070892BE9F0E60CF71C081DF4
:10129000191D9A01AB012A0D3B1D4C1D5D1D80E0FF
:1012A00090E0A0E0B0E0E614F7040805190520F48A
:1012B00081E090E0A0E0B0E0BA01A901480F591F19
:1012C0006A1F7B1FAA0CBB1CCC1CDD1C97FE08C030
:1012D00081E090E0A0E0B0E0A82AB92ACA2ADB2A7F
:1012E0003196E032F10549F0660C771C881C991C98
:1012F0005694479437942794C3CFFA85EA892B896B
:101300003C898B859C85280F391F2E5F3F4F17C066
:10131000CA0181709070892B61F016950795F7943A
:10132000E79480E090E0A0E0B0E8E82AF92A0A2BF0
:101330001B2B76956795579547952F5F3F4F77FD08
:10134000E7CF0CC0440F551F661F771F17FD416084
:10135000EE0CFF1C001F111F21503040403090E068
:10136000590790E0690790E4790760F32B8F3C8F71
:10137000DB01CA018F779070A070B0708034910546
:10138000A105B10561F447FD0AC0E114F1040105AE
:10139000110529F0405C5F4F6F4F7F4F40781A8EE8
:1013A000FE1711F081E08A8F4D8F5E8F6F8F78A3CB
:1013B00083E0898FCE0149960E94C60AA096E2E199
:1013C0000C94AA0CA8E1B0E0E8EEF9E00C949A0CB9
:1013D00069837A838B839C832D833E834F835887D5
:1013E00089E0E82EF12CEC0EFD1ECE010196B7012E
:1013F0000E949B0B8E010F5E1F4FCE010596B80118
:101400000E949B0B8985823040F08989823028F0C8
:10141000C701B8010E94130C01C08FEF6896E6E087
:101420000C94B60CA8E1B0E0E8E1FAE00C949A0C58
:1014300069837A838B839C832D833E834F83588774
:1014400089E0E82EF12CEC0EFD1ECE010196B701CD
:101450000E949B0B8E010F5E1F4FCE010596B801B7
:101460000E949B0B8985823040F08989823028F068
:10147000C701B8010E94130C01C08FEF6896E6E027
:101480000C94B60CA8E1B0E0E8E4FAE00C949A0CF5
:1014900069837A838B839C832D833E834F83588714
:1014A00089E0E82EF12CEC0EFD1ECE010196B7016D
:1014B0000E949B0B8E010F5E1F4FCE010596B80157
:1014C0000E949B0B8985823040F08989823028F008
:1014D000C701B8010E94130C01C081E06896E6E0E4
:1014E0000C94B60CACE0B0E0E8E7FAE00C949E0C8B
:1014F00069837A838B839C83CE010196BE016B5FE7
:101500007F4F0E949B0B8D81823061F1823050F1C0
:10151000843021F48E81882351F12EC02F813885AB
:1015200037FD20C06E812F3131051CF06623F9F0A4
:1015300023C08EE190E0821B930B29853A854B8571
:101540005C8504C056954795379527958A95D2F7BF
:101550006623B1F050954095309521953F4F4F4F00
:101560005F4F0EC020E030E040E050E009C02FEFB8
:101570003FEF4FEF5FE704C020E030E040E050E88D
:10158000B901CA012C96E2E00C94BA0CDF92EF92FA
:10159000FF920F931F93FC01E480F5800681178171
:1015A000D1808081823048F480E090E0A0E1B0E01A
:1015B000E82AF92A0A2B1B2BA5C0843009F49FC006
:1015C000823021F4EE24FF24870105C0E114F104E8
:1015D0000105110519F4E0E0F0E096C06281738125
:1015E0009FEF623879070CF05BC022E83FEF261BC3
:1015F000370B2A3131052CF020E030E040E050E09C
:101600002AC0B801A701022E04C0769567955795A8
:1016100047950A94D2F781E090E0A0E0B0E004C0E2
:10162000880F991FAA1FBB1F2A95D2F70197A109FE
:10163000B1098E219F21A023B1230097A105B105F7
:1016400021F081E090E0A0E0B0E09A01AB01282B0E
:10165000392B4A2B5B2BDA01C9018F779070A07070
:10166000B07080349105A105B10539F427FF09C098
:10167000205C3F4F4F4F5F4F04C0215C3F4F4F4FA7
:101680005F4FE0E0F0E02030A0E03A07A0E04A073A
:10169000A0E45A0710F0E1E0F0E079018A0127C0E8
:1016A0006038710564F5FB01E158FF4FD801C701AF
:1016B0008F779070A070B07080349105A105B1054E
:1016C00039F4E7FE0DC080E490E0A0E0B0E004C093
:1016D0008FE390E0A0E0B0E0E80EF91E0A1F1B1FA8
:1016E00017FF05C016950795F794E794319687E0A4
:1016F00016950795F794E7948A95D1F705C0EE24DF
:10170000FF248701EFEFF0E06E2F6795662767955E
:10171000902F9F77D794DD24D7948E2F8695492FCD
:10172000462B582F5D29B701CA011F910F91FF90D9
:10173000EF90DF900895FC01DB014081518122810F
:10174000622F6F7770E0221F2227221F9381892F3B
:10175000880F822B282F30E0991F9927991F119607
:101760009C93119721153105A9F541155105610586
:10177000710511F482E037C082E89FEF13969C93C5
:101780008E9312979A01AB0167E0220F331F441F1B
:10179000551F6A95D1F783E08C930DC0220F331F3C
:1017A000441F551F12968D919C9113970197139684
:1017B0009C938E931297203080E0380780E0480792
:1017C00080E4580758F314962D933D934D935C9302
:1017D000179708952F3F310579F44115510561059B
:1017E000710519F484E08C93089564FF03C081E0CF
:1017F0008C9312C01C9210C02F57304013963C930C
:101800002E93129783E08C9387E0440F551F661F39
:10181000771F8A95D1F7706414964D935D936D93FD
:101820007C93179708951F93DC01FB019C919230E4
:1018300008F447C08081823008F443C0943051F4EA
:1018400011961C91843099F58181682F70E0611B9D
:1018500071093FC0843021F0923031F48230B9F107
:101860008181882389F12DC011961C9111978230B6
:10187000F1F081811817D9F412962D913C911397AC
:10188000828193818217930794F028173907BCF05F
:1018900014968D919D910D90BC91A02D2481358140
:1018A00046815781281739074A075B0718F4112327
:1018B00041F00AC082179307A407B50740F411232B
:1018C00019F061E070E005C06FEF7FEF02C060E0EB
:1018D00070E0CB011F910895A1E21A2EAA1BBB1B39
:1018E000FD010DC0AA1FBB1FEE1FFF1FA217B307EC
:1018F000E407F50720F0A21BB30BE40BF50B661F02
:10190000771F881F991F1A9469F7609570958095C5
:1019100090959B01AC01BD01CF0108952F923F929C
:101920004F925F926F927F928F929F92AF92BF92EF
:10193000CF92DF92EF92FF920F931F93CF93DF939B
:10194000CDB7DEB7CA1BDB0B0FB6F894DEBF0FBEF8
:10195000CDBF09942A88398848885F846E847D8445
:101960008C849B84AA84B984C884DF80EE80FD8047
:101970000C811B81AA81B981CE0FD11D0FB6F894BD
:0E198000DEBF0FBECDBFED010895F894FFCF7E
:08198E00000000000000000051
:00000001FF
